{
  "contractName": "TheCrown",
  "abi": [
    {
      "constant": true,
      "inputs": [],
      "name": "name",
      "outputs": [
        {
          "name": "",
          "type": "string"
        }
      ],
      "payable": false,
      "stateMutability": "view",
      "type": "function"
    },
    {
      "constant": true,
      "inputs": [],
      "name": "INITIAL_SUPPLY",
      "outputs": [
        {
          "name": "",
          "type": "uint256"
        }
      ],
      "payable": false,
      "stateMutability": "view",
      "type": "function"
    },
    {
      "constant": true,
      "inputs": [],
      "name": "decimals",
      "outputs": [
        {
          "name": "",
          "type": "uint8"
        }
      ],
      "payable": false,
      "stateMutability": "view",
      "type": "function"
    },
    {
      "constant": true,
      "inputs": [],
      "name": "symbol",
      "outputs": [
        {
          "name": "",
          "type": "string"
        }
      ],
      "payable": false,
      "stateMutability": "view",
      "type": "function"
    },
    {
      "anonymous": false,
      "inputs": [
        {
          "indexed": true,
          "name": "_from",
          "type": "address"
        },
        {
          "indexed": true,
          "name": "_to",
          "type": "address"
        },
        {
          "indexed": false,
          "name": "_tokenId",
          "type": "uint256"
        }
      ],
      "name": "Transfer",
      "type": "event"
    },
    {
      "anonymous": false,
      "inputs": [
        {
          "indexed": true,
          "name": "_owner",
          "type": "address"
        },
        {
          "indexed": true,
          "name": "_approved",
          "type": "address"
        },
        {
          "indexed": false,
          "name": "_tokenId",
          "type": "uint256"
        }
      ],
      "name": "Approval",
      "type": "event"
    },
    {
      "anonymous": false,
      "inputs": [
        {
          "indexed": true,
          "name": "_owner",
          "type": "address"
        },
        {
          "indexed": true,
          "name": "_operator",
          "type": "address"
        },
        {
          "indexed": false,
          "name": "_approved",
          "type": "bool"
        }
      ],
      "name": "ApprovalForAll",
      "type": "event"
    },
    {
      "constant": true,
      "inputs": [
        {
          "name": "_owner",
          "type": "address"
        }
      ],
      "name": "balanceOf",
      "outputs": [
        {
          "name": "",
          "type": "uint256"
        }
      ],
      "payable": false,
      "stateMutability": "view",
      "type": "function"
    },
    {
      "constant": true,
      "inputs": [
        {
          "name": "_tokenId",
          "type": "uint256"
        }
      ],
      "name": "ownerOf",
      "outputs": [
        {
          "name": "",
          "type": "address"
        }
      ],
      "payable": false,
      "stateMutability": "view",
      "type": "function"
    },
    {
      "constant": true,
      "inputs": [
        {
          "name": "_tokenId",
          "type": "uint256"
        }
      ],
      "name": "exists",
      "outputs": [
        {
          "name": "",
          "type": "bool"
        }
      ],
      "payable": false,
      "stateMutability": "view",
      "type": "function"
    },
    {
      "constant": false,
      "inputs": [
        {
          "name": "_to",
          "type": "address"
        },
        {
          "name": "_tokenId",
          "type": "uint256"
        }
      ],
      "name": "approve",
      "outputs": [],
      "payable": false,
      "stateMutability": "nonpayable",
      "type": "function"
    },
    {
      "constant": true,
      "inputs": [
        {
          "name": "_tokenId",
          "type": "uint256"
        }
      ],
      "name": "getApproved",
      "outputs": [
        {
          "name": "",
          "type": "address"
        }
      ],
      "payable": false,
      "stateMutability": "view",
      "type": "function"
    },
    {
      "constant": false,
      "inputs": [
        {
          "name": "_to",
          "type": "address"
        },
        {
          "name": "_approved",
          "type": "bool"
        }
      ],
      "name": "setApprovalForAll",
      "outputs": [],
      "payable": false,
      "stateMutability": "nonpayable",
      "type": "function"
    },
    {
      "constant": true,
      "inputs": [
        {
          "name": "_owner",
          "type": "address"
        },
        {
          "name": "_operator",
          "type": "address"
        }
      ],
      "name": "isApprovedForAll",
      "outputs": [
        {
          "name": "",
          "type": "bool"
        }
      ],
      "payable": false,
      "stateMutability": "view",
      "type": "function"
    },
    {
      "constant": false,
      "inputs": [
        {
          "name": "_from",
          "type": "address"
        },
        {
          "name": "_to",
          "type": "address"
        },
        {
          "name": "_tokenId",
          "type": "uint256"
        }
      ],
      "name": "transferFrom",
      "outputs": [],
      "payable": false,
      "stateMutability": "nonpayable",
      "type": "function"
    },
    {
      "constant": false,
      "inputs": [
        {
          "name": "_from",
          "type": "address"
        },
        {
          "name": "_to",
          "type": "address"
        },
        {
          "name": "_tokenId",
          "type": "uint256"
        }
      ],
      "name": "safeTransferFrom",
      "outputs": [],
      "payable": false,
      "stateMutability": "nonpayable",
      "type": "function"
    },
    {
      "constant": false,
      "inputs": [
        {
          "name": "_from",
          "type": "address"
        },
        {
          "name": "_to",
          "type": "address"
        },
        {
          "name": "_tokenId",
          "type": "uint256"
        },
        {
          "name": "_data",
          "type": "bytes"
        }
      ],
      "name": "safeTransferFrom",
      "outputs": [],
      "payable": false,
      "stateMutability": "nonpayable",
      "type": "function"
    }
  ],
  "bytecode": "0x60806040526040805190810160405280600881526020017f54686543726f776e0000000000000000000000000000000000000000000000008152506000908051906020019062000051929190620000d5565b506040805190810160405280600581526020017f43726f776e000000000000000000000000000000000000000000000000000000815250600190805190602001906200009f929190620000d5565b506000600260006101000a81548160ff021916908360ff1602179055506001600355348015620000ce57600080fd5b5062000184565b828054600181600116156101000203166002900490600052602060002090601f016020900481019282601f106200011857805160ff191683800117855562000149565b8280016001018555821562000149579182015b82811115620001485782518255916020019190600101906200012b565b5b5090506200015891906200015c565b5090565b6200018191905b808211156200017d57600081600090555060010162000163565b5090565b90565b61157e80620001946000396000f3006080604052600436106100d0576000357c0100000000000000000000000000000000000000000000000000000000900463ffffffff16806306fdde03146100d5578063081812fc14610165578063095ea7b3146101d257806323b872dd1461021f5780632ff2e9dc1461028c578063313ce567146102b757806342842e0e146102e85780634f558e79146103555780636352211e1461039a57806370a082311461040757806395d89b411461045e578063a22cb465146104ee578063b88d4fde1461053d578063e985e9c5146105f0575b600080fd5b3480156100e157600080fd5b506100ea61066b565b6040518080602001828103825283818151815260200191508051906020019080838360005b8381101561012a57808201518184015260208101905061010f565b50505050905090810190601f1680156101575780820380516001836020036101000a031916815260200191505b509250505060405180910390f35b34801561017157600080fd5b5061019060048036038101908080359060200190929190505050610709565b604051808273ffffffffffffffffffffffffffffffffffffffff1673ffffffffffffffffffffffffffffffffffffffff16815260200191505060405180910390f35b3480156101de57600080fd5b5061021d600480360381019080803573ffffffffffffffffffffffffffffffffffffffff16906020019092919080359060200190929190505050610746565b005b34801561022b57600080fd5b5061028a600480360381019080803573ffffffffffffffffffffffffffffffffffffffff169060200190929190803573ffffffffffffffffffffffffffffffffffffffff1690602001909291908035906020019092919050505061090c565b005b34801561029857600080fd5b506102a1610a23565b6040518082815260200191505060405180910390f35b3480156102c357600080fd5b506102cc610a29565b604051808260ff1660ff16815260200191505060405180910390f35b3480156102f457600080fd5b50610353600480360381019080803573ffffffffffffffffffffffffffffffffffffffff169060200190929190803573ffffffffffffffffffffffffffffffffffffffff16906020019092919080359060200190929190505050610a3c565b005b34801561036157600080fd5b5061038060048036038101908080359060200190929190505050610a74565b604051808215151515815260200191505060405180910390f35b3480156103a657600080fd5b506103c560048036038101908080359060200190929190505050610ae6565b604051808273ffffffffffffffffffffffffffffffffffffffff1673ffffffffffffffffffffffffffffffffffffffff16815260200191505060405180910390f35b34801561041357600080fd5b50610448600480360381019080803573ffffffffffffffffffffffffffffffffffffffff169060200190929190505050610b64565b6040518082815260200191505060405180910390f35b34801561046a57600080fd5b50610473610be8565b6040518080602001828103825283818151815260200191508051906020019080838360005b838110156104b3578082015181840152602081019050610498565b50505050905090810190601f1680156104e05780820380516001836020036101000a031916815260200191505b509250505060405180910390f35b3480156104fa57600080fd5b5061053b600480360381019080803573ffffffffffffffffffffffffffffffffffffffff169060200190929190803515159060200190929190505050610c86565b005b34801561054957600080fd5b506105ee600480360381019080803573ffffffffffffffffffffffffffffffffffffffff169060200190929190803573ffffffffffffffffffffffffffffffffffffffff16906020019092919080359060200190929190803590602001908201803590602001908080601f0160208091040260200160405190810160405280939291908181526020018383808284378201915050505050509192919290505050610dc2565b005b3480156105fc57600080fd5b50610651600480360381019080803573ffffffffffffffffffffffffffffffffffffffff169060200190929190803573ffffffffffffffffffffffffffffffffffffffff169060200190929190505050610e01565b604051808215151515815260200191505060405180910390f35b60008054600181600116156101000203166002900480601f0160208091040260200160405190810160405280929190818152602001828054600181600116156101000203166002900480156107015780601f106106d657610100808354040283529160200191610701565b820191906000526020600020905b8154815290600101906020018083116106e457829003601f168201915b505050505081565b60006005600083815260200190815260200160002060009054906101000a900473ffffffffffffffffffffffffffffffffffffffff169050919050565b600061075182610ae6565b90508073ffffffffffffffffffffffffffffffffffffffff168373ffffffffffffffffffffffffffffffffffffffff161415151561078e57600080fd5b8073ffffffffffffffffffffffffffffffffffffffff163373ffffffffffffffffffffffffffffffffffffffff1614806107ce57506107cd8133610e01565b5b15156107d957600080fd5b600073ffffffffffffffffffffffffffffffffffffffff166107fa83610709565b73ffffffffffffffffffffffffffffffffffffffff1614158061084a5750600073ffffffffffffffffffffffffffffffffffffffff168373ffffffffffffffffffffffffffffffffffffffff1614155b1561090757826005600084815260200190815260200160002060006101000a81548173ffffffffffffffffffffffffffffffffffffffff021916908373ffffffffffffffffffffffffffffffffffffffff1602179055508273ffffffffffffffffffffffffffffffffffffffff168173ffffffffffffffffffffffffffffffffffffffff167f8c5be1e5ebec7d5bd14f71427d1e84f3dd0314c0f7b2291e5b200ac8c7c3b925846040518082815260200191505060405180910390a35b505050565b806109173382610e95565b151561092257600080fd5b600073ffffffffffffffffffffffffffffffffffffffff168473ffffffffffffffffffffffffffffffffffffffff161415151561095e57600080fd5b600073ffffffffffffffffffffffffffffffffffffffff168373ffffffffffffffffffffffffffffffffffffffff161415151561099a57600080fd5b6109a48483610f2a565b6109ae8483611093565b6109b883836111c2565b8273ffffffffffffffffffffffffffffffffffffffff168473ffffffffffffffffffffffffffffffffffffffff167fddf252ad1be2c89b69c2b068fc378daa952ba7f163c4a11628f55a4df523b3ef846040518082815260200191505060405180910390a350505050565b60035481565b600260009054906101000a900460ff1681565b80610a473382610e95565b1515610a5257600080fd5b610a6e8484846020604051908101604052806000815250610dc2565b50505050565b6000806004600084815260200190815260200160002060009054906101000a900473ffffffffffffffffffffffffffffffffffffffff169050600073ffffffffffffffffffffffffffffffffffffffff168173ffffffffffffffffffffffffffffffffffffffff161415915050919050565b6000806004600084815260200190815260200160002060009054906101000a900473ffffffffffffffffffffffffffffffffffffffff169050600073ffffffffffffffffffffffffffffffffffffffff168173ffffffffffffffffffffffffffffffffffffffff1614151515610b5b57600080fd5b80915050919050565b60008073ffffffffffffffffffffffffffffffffffffffff168273ffffffffffffffffffffffffffffffffffffffff1614151515610ba157600080fd5b600660008373ffffffffffffffffffffffffffffffffffffffff1673ffffffffffffffffffffffffffffffffffffffff168152602001908152602001600020549050919050565b60018054600181600116156101000203166002900480601f016020809104026020016040519081016040528092919081815260200182805460018160011615610100020316600290048015610c7e5780601f10610c5357610100808354040283529160200191610c7e565b820191906000526020600020905b815481529060010190602001808311610c6157829003601f168201915b505050505081565b3373ffffffffffffffffffffffffffffffffffffffff168273ffffffffffffffffffffffffffffffffffffffff1614151515610cc157600080fd5b80600760003373ffffffffffffffffffffffffffffffffffffffff1673ffffffffffffffffffffffffffffffffffffffff16815260200190815260200160002060008473ffffffffffffffffffffffffffffffffffffffff1673ffffffffffffffffffffffffffffffffffffffff16815260200190815260200160002060006101000a81548160ff0219169083151502179055508173ffffffffffffffffffffffffffffffffffffffff163373ffffffffffffffffffffffffffffffffffffffff167f17307eab39ab6107e8899845ad3d59bd9653f200f220920489ca2b5937696c3183604051808215151515815260200191505060405180910390a35050565b81610dcd3382610e95565b1515610dd857600080fd5b610de385858561090c565b610def8585858561131c565b1515610dfa57600080fd5b5050505050565b6000600760008473ffffffffffffffffffffffffffffffffffffffff1673ffffffffffffffffffffffffffffffffffffffff16815260200190815260200160002060008373ffffffffffffffffffffffffffffffffffffffff1673ffffffffffffffffffffffffffffffffffffffff16815260200190815260200160002060009054906101000a900460ff16905092915050565b600080610ea183610ae6565b90508073ffffffffffffffffffffffffffffffffffffffff168473ffffffffffffffffffffffffffffffffffffffff161480610f1057508373ffffffffffffffffffffffffffffffffffffffff16610ef884610709565b73ffffffffffffffffffffffffffffffffffffffff16145b80610f215750610f208185610e01565b5b91505092915050565b8173ffffffffffffffffffffffffffffffffffffffff16610f4a82610ae6565b73ffffffffffffffffffffffffffffffffffffffff16141515610f6c57600080fd5b600073ffffffffffffffffffffffffffffffffffffffff166005600083815260200190815260200160002060009054906101000a900473ffffffffffffffffffffffffffffffffffffffff1673ffffffffffffffffffffffffffffffffffffffff1614151561108f5760006005600083815260200190815260200160002060006101000a81548173ffffffffffffffffffffffffffffffffffffffff021916908373ffffffffffffffffffffffffffffffffffffffff160217905550600073ffffffffffffffffffffffffffffffffffffffff168273ffffffffffffffffffffffffffffffffffffffff167f8c5be1e5ebec7d5bd14f71427d1e84f3dd0314c0f7b2291e5b200ac8c7c3b925836040518082815260200191505060405180910390a35b5050565b8173ffffffffffffffffffffffffffffffffffffffff166110b382610ae6565b73ffffffffffffffffffffffffffffffffffffffff161415156110d557600080fd5b6111286001600660008573ffffffffffffffffffffffffffffffffffffffff1673ffffffffffffffffffffffffffffffffffffffff1681526020019081526020016000205461150a90919063ffffffff16565b600660008473ffffffffffffffffffffffffffffffffffffffff1673ffffffffffffffffffffffffffffffffffffffff1681526020019081526020016000208190555060006004600083815260200190815260200160002060006101000a81548173ffffffffffffffffffffffffffffffffffffffff021916908373ffffffffffffffffffffffffffffffffffffffff1602179055505050565b600073ffffffffffffffffffffffffffffffffffffffff166004600083815260200190815260200160002060009054906101000a900473ffffffffffffffffffffffffffffffffffffffff1673ffffffffffffffffffffffffffffffffffffffff1614151561123057600080fd5b816004600083815260200190815260200160002060006101000a81548173ffffffffffffffffffffffffffffffffffffffff021916908373ffffffffffffffffffffffffffffffffffffffff1602179055506112d56001600660008573ffffffffffffffffffffffffffffffffffffffff1673ffffffffffffffffffffffffffffffffffffffff1681526020019081526020016000205461152390919063ffffffff16565b600660008473ffffffffffffffffffffffffffffffffffffffff1673ffffffffffffffffffffffffffffffffffffffff168152602001908152602001600020819055505050565b60008061133e8573ffffffffffffffffffffffffffffffffffffffff1661153f565b151561134d5760019150611501565b8473ffffffffffffffffffffffffffffffffffffffff1663f0b9e5ba8786866040518463ffffffff167c0100000000000000000000000000000000000000000000000000000000028152600401808473ffffffffffffffffffffffffffffffffffffffff1673ffffffffffffffffffffffffffffffffffffffff16815260200183815260200180602001828103825283818151815260200191508051906020019080838360005b8381101561140f5780820151818401526020810190506113f4565b50505050905090810190601f16801561143c5780820380516001836020036101000a031916815260200191505b50945050505050602060405180830381600087803b15801561145d57600080fd5b505af1158015611471573d6000803e3d6000fd5b505050506040513d602081101561148757600080fd5b8101908080519060200190929190505050905063f0b9e5ba7c0100000000000000000000000000000000000000000000000000000000027bffffffffffffffffffffffffffffffffffffffffffffffffffffffff1916817bffffffffffffffffffffffffffffffffffffffffffffffffffffffff19161491505b50949350505050565b600082821115151561151857fe5b818303905092915050565b6000818301905082811015151561153657fe5b80905092915050565b600080823b9050600081119150509190505600a165627a7a7230582040ef011ac89780ab80e43cd221f1377f82ae568527529ee0704c4817f533f1d70029",
  "source": "pragma solidity 0.4.23;\n\nimport \"../node_modules/openzeppelin-solidity/contracts/token/ERC721/ERC721Basic.sol\";\nimport \"../node_modules/openzeppelin-solidity/contracts/token/ERC721/ERC721Receiver.sol\";\nimport \"../node_modules/openzeppelin-solidity/contracts/math/SafeMath.sol\";\nimport \"../node_modules/openzeppelin-solidity/contracts/AddressUtils.sol\";\n\n\ncontract TheCrown is ERC721Basic {\n    \n    string public name = \"TheCrown\";\n    string public symbol = \"Crown\";\n    uint8 public decimals = 0;\n    uint public INITIAL_SUPPLY = 1;\n\n    using SafeMath for uint256;\n    using AddressUtils for address;\n\n    // Function signatures are 4 bytes long and the formula to generate it is to hash it with the keccak256 function\n    // Equals to `bytes4(keccak256(\"onERC721Received(address,uint256,bytes)\"))`\n    // which can be also obtained as `ERC721Receiver(0).onERC721Received.selector`\n    bytes4 constant ERC721_RECEIVED = 0xf0b9e5ba;\n\n    // Mapping from token ID to owner\n    mapping (uint256 => address) internal tokenOwner;\n\n    // Mapping from token ID to approved address\n    mapping (uint256 => address) internal tokenApprovals;\n\n    // Mapping from owner to number of owned token\n    mapping (address => uint256) internal ownedTokensCount;\n\n    // Mapping from owner to operator approvals\n    mapping (address => mapping (address => bool)) internal operatorApprovals;\n\n    /**\n    * @dev Guarantees msg.sender is owner of the given token\n    * @param _tokenId uint256 ID of the token to validate its ownership belongs to msg.sender\n    */\n    modifier onlyOwnerOf(uint256 _tokenId) {\n      require(ownerOf(_tokenId) == msg.sender);\n      _;\n    }\n\n    /**\n    * @dev Checks msg.sender can transfer a token, by being owner, approved, or operator\n    * @param _tokenId uint256 ID of the token to validate\n    */\n    modifier canTransfer(uint256 _tokenId) {\n      require(isApprovedOrOwner(msg.sender, _tokenId));\n      _;\n    }\n\n    /**\n    * @dev Gets the balance of the specified address\n    * @param _owner address to query the balance of\n    * @return uint256 representing the amount owned by the passed address\n    */\n    function balanceOf(address _owner) public view returns (uint256) {\n      require(_owner != address(0));\n      return ownedTokensCount[_owner];\n    }\n\n    /**\n    * @dev Gets the owner of the specified token ID\n    * @param _tokenId uint256 ID of the token to query the owner of\n    * @return owner address currently marked as the owner of the given token ID\n    */\n    function ownerOf(uint256 _tokenId) public view returns (address) {\n      address owner = tokenOwner[_tokenId];\n      require(owner != address(0));\n      return owner;\n    }\n\n    /**\n    * @dev Returns whether the specified token exists\n    * @param _tokenId uint256 ID of the token to query the existance of\n    * @return whether the token exists\n    */\n    function exists(uint256 _tokenId) public view returns (bool) {\n      address owner = tokenOwner[_tokenId];\n      return owner != address(0);\n    }\n\n    /**\n    * @dev Approves another address to transfer the given token ID\n    * @dev The zero address indicates there is no approved address.\n    * @dev There can only be one approved address per token at a given time.\n    * @dev Can only be called by the token owner or an approved operator.\n    * @param _to address to be approved for the given token ID\n    * @param _tokenId uint256 ID of the token to be approved\n    */\n    function approve(address _to, uint256 _tokenId) public {\n      address owner = ownerOf(_tokenId);\n      require(_to != owner);\n      require(msg.sender == owner || isApprovedForAll(owner, msg.sender));\n\n      if (getApproved(_tokenId) != address(0) || _to != address(0)) {\n        tokenApprovals[_tokenId] = _to;\n        emit Approval(owner, _to, _tokenId);\n      }\n    }\n\n    /**\n    * @dev Gets the approved address for a token ID, or zero if no address set\n    * @param _tokenId uint256 ID of the token to query the approval of\n    * @return address currently approved for a the given token ID\n    */\n    function getApproved(uint256 _tokenId) public view returns (address) {\n      return tokenApprovals[_tokenId];\n    }\n\n    /**\n    * @dev Sets or unsets the approval of a given operator\n    * @dev An operator is allowed to transfer all tokens of the sender on their behalf\n    * @param _to operator address to set the approval\n    * @param _approved representing the status of the approval to be set\n    */\n    function setApprovalForAll(address _to, bool _approved) public {\n      require(_to != msg.sender);\n      operatorApprovals[msg.sender][_to] = _approved;\n      emit ApprovalForAll(msg.sender, _to, _approved);\n    }\n\n    /**\n    * @dev Tells whether an operator is approved by a given owner\n    * @param _owner owner address which you want to query the approval of\n    * @param _operator operator address which you want to query the approval of\n    * @return bool whether the given operator is approved by the given owner\n    */\n    function isApprovedForAll(address _owner, address _operator) public view returns (bool) {\n      return operatorApprovals[_owner][_operator];\n    }\n\n    /**\n    * @dev Transfers the ownership of a given token ID to another address\n    * @dev Usage of this method is discouraged, use `safeTransferFrom` whenever possible\n    * @dev Requires the msg sender to be the owner, approved, or operator\n    * @param _from current owner of the token\n    * @param _to address to receive the ownership of the given token ID\n    * @param _tokenId uint256 ID of the token to be transferred\n    */\n    function transferFrom(address _from, address _to, uint256 _tokenId) public canTransfer(_tokenId) {\n      require(_from != address(0));\n      require(_to != address(0));\n\n      clearApproval(_from, _tokenId);\n      removeTokenFrom(_from, _tokenId);\n      addTokenTo(_to, _tokenId);\n\n      emit Transfer(_from, _to, _tokenId);\n    }\n\n    /**\n    * @dev Safely transfers the ownership of a given token ID to another address\n    * @dev If the target address is a contract, it must implement `onERC721Received`,\n    *  which is called upon a safe transfer, and return the magic value\n    *  `bytes4(keccak256(\"onERC721Received(address,uint256,bytes)\"))`; otherwise,\n    *  the transfer is reverted.\n    * @dev Requires the msg sender to be the owner, approved, or operator\n    * @param _from current owner of the token\n    * @param _to address to receive the ownership of the given token ID\n    * @param _tokenId uint256 ID of the token to be transferred\n    */\n    function safeTransferFrom(\n      address _from,\n      address _to,\n      uint256 _tokenId\n    )\n      public\n      canTransfer(_tokenId)\n    {\n      // solium-disable-next-line arg-overflow\n      safeTransferFrom(_from, _to, _tokenId, \"\");\n    }\n\n    /**\n    * @dev Safely transfers the ownership of a given token ID to another address\n    * @dev If the target address is a contract, it must implement `onERC721Received`,\n    *  which is called upon a safe transfer, and return the magic value\n    *  `bytes4(keccak256(\"onERC721Received(address,uint256,bytes)\"))`; otherwise,\n    *  the transfer is reverted.\n    * @dev Requires the msg sender to be the owner, approved, or operator\n    * @param _from current owner of the token\n    * @param _to address to receive the ownership of the given token ID\n    * @param _tokenId uint256 ID of the token to be transferred\n    * @param _data bytes data to send along with a safe transfer check\n    */\n    function safeTransferFrom(\n      address _from,\n      address _to,\n      uint256 _tokenId,\n      bytes _data\n    )\n      public\n      canTransfer(_tokenId)\n    {\n      transferFrom(_from, _to, _tokenId);\n      // solium-disable-next-line arg-overflow\n      require(checkAndCallSafeTransfer(_from, _to, _tokenId, _data));\n    }\n\n    /**\n    * @dev Returns whether the given spender can transfer a given token ID\n    * @param _spender address of the spender to query\n    * @param _tokenId uint256 ID of the token to be transferred\n    * @return bool whether the msg.sender is approved for the given token ID,\n    *  is an operator of the owner, or is the owner of the token\n    */\n    function isApprovedOrOwner(address _spender, uint256 _tokenId) internal view returns (bool) {\n      address owner = ownerOf(_tokenId);\n      return _spender == owner || getApproved(_tokenId) == _spender || isApprovedForAll(owner, _spender);\n    }\n\n    /**\n    * @dev Internal function to mint a new token\n    * @dev Reverts if the given token ID already exists\n    * @param _to The address that will own the minted token\n    * @param _tokenId uint256 ID of the token to be minted by the msg.sender\n    */\n    function _mint(address _to, uint256 _tokenId) internal {\n      require(_to != address(0));\n      addTokenTo(_to, _tokenId);\n      emit Transfer(address(0), _to, _tokenId);\n    }\n\n    /**\n    * @dev Internal function to burn a specific token\n    * @dev Reverts if the token does not exist\n    * @param _tokenId uint256 ID of the token being burned by the msg.sender\n    */\n    function _burn(address _owner, uint256 _tokenId) internal {\n      clearApproval(_owner, _tokenId);\n      removeTokenFrom(_owner, _tokenId);\n      emit Transfer(_owner, address(0), _tokenId);\n    }\n\n    /**\n    * @dev Internal function to clear current approval of a given token ID\n    * @dev Reverts if the given address is not indeed the owner of the token\n    * @param _owner owner of the token\n    * @param _tokenId uint256 ID of the token to be transferred\n    */\n    function clearApproval(address _owner, uint256 _tokenId) internal {\n      require(ownerOf(_tokenId) == _owner);\n      if (tokenApprovals[_tokenId] != address(0)) {\n        tokenApprovals[_tokenId] = address(0);\n        emit Approval(_owner, address(0), _tokenId);\n      }\n    }\n\n    /**\n    * @dev Internal function to add a token ID to the list of a given address\n    * @param _to address representing the new owner of the given token ID\n    * @param _tokenId uint256 ID of the token to be added to the tokens list of the given address\n    */\n    function addTokenTo(address _to, uint256 _tokenId) internal {\n      require(tokenOwner[_tokenId] == address(0));\n      tokenOwner[_tokenId] = _to;\n      ownedTokensCount[_to] = ownedTokensCount[_to].add(1);\n    }\n\n    /**\n    * @dev Internal function to remove a token ID from the list of a given address\n    * @param _from address representing the previous owner of the given token ID\n    * @param _tokenId uint256 ID of the token to be removed from the tokens list of the given address\n    */\n    function removeTokenFrom(address _from, uint256 _tokenId) internal {\n      require(ownerOf(_tokenId) == _from);\n      ownedTokensCount[_from] = ownedTokensCount[_from].sub(1);\n      tokenOwner[_tokenId] = address(0);\n    }\n\n    /**\n    * @dev Internal function to invoke `onERC721Received` on a target address\n    * @dev The call is not executed if the target address is not a contract\n    * @param _from address representing the previous owner of the given token ID\n    * @param _to target address that will receive the tokens\n    * @param _tokenId uint256 ID of the token to be transferred\n    * @param _data bytes optional data to send along with the call\n    * @return whether the call correctly returned the expected magic value\n    */\n    function checkAndCallSafeTransfer(\n      address _from,\n      address _to,\n      uint256 _tokenId,\n      bytes _data\n    )\n      internal\n      returns (bool)\n    {\n      if (!_to.isContract()) {\n        return true;\n      }\n      bytes4 retval = ERC721Receiver(_to).onERC721Received(_from, _tokenId, _data);\n      return (retval == ERC721_RECEIVED);\n    } \n}",
  "sourcePath": "/Users/Gilles/Projects/TheCrown/ethereum/blockchain/contracts/TheCrown.sol",
  "compiler": {
    "name": "solc",
    "version": "0.4.23+commit.124ca40d.Emscripten.clang"
  },
  "schemaVersion": "2.0.0",
  "updatedAt": "2018-05-15T21:01:51.161Z"
}